:10000000ADC60000CCC60000CAC60000C8C60000CD
:10001000C6C60000C4C600000C94841A0C94D30F0A
:10002000BEC60000BCC60000BAC60000B8C60000CC
:10003000B6C60000B4C60000B2C600000C94B11BE6
:10004000AEC600000C94C412AAC60000A8C60000E8
:10005000A6C60000A4C60000A2C60000A0C60000FC
:100060009EC600009CC600009AC6000098C600000C
:1000700096C6000094C6000092C6000090C600001C
:100080008EC600008CC600008AC6000088C600002C
:1000900086C6000084C6000082C6000080C600003C
:1000A0007EC600007CC600007AC6000078C600004C
:1000B00076C6000074C6000072C6000070C600005C
:1000C0006EC600006CC600006AC600000C9459534E
:1000D0000C94875264C600000C940F2C0C94C059E9
:1000E0005EC60000150C110C0D0C090C050C190C4A
:1000F000010C801E961EAC1EAF1EB21EB51EB81E91
:10010000BB1EBE1E4F1E521E8631803178317031AB
:1001100014320632DF318E31623A7B3B9B3A233B0D
:10012000B934B934B934593A9B3A3E3A8D5496545D
:100130009C54A254A854CE54D5540A55B355E855EE
:100140008D5693569A56CF5674577A578157925771
:10015000A357AB57E657825889589658A806B80651
:1001600088069806E806F806C806D806280638065F
:1001700008061806680678064806580654075C07FD
:1001800044074C0774077C0764076C0714071C07B7
:1001900004070C0734073C0724072C07A002E002E1
:1001A00020026002A003E00320036003A000E0003F
:1001B00020006000A001E0012001600150057005F1
:1001C00010053005D005F0059005B0055004700409
:1001D00010043004D004F0049004B004EA07EB07E4
:1001E000E807E907EE07EF07EC07ED07E207E3078B
:1001F000E007E107E607E707E407E507FA07FB077B
:10020000F807F907FE07FF07FC07FD07F207F307EA
:10021000F007F107F607F707F407F507AA07AE0797
:10022000A207A607BA07BE07B207B6078A078E0756
:10023000820786079A079E0792079607D507D70772
:10024000D107D307DD07DF07D907DB07C507C707D6
:10025000C107C307CD07CF07C907CB07580948090E
:10026000780968091809080938092809D809C80946
:10027000F809E80998098809B809A809AC08A40888
:10028000BC08B4088C0884089C089408EC08E408AE
:10029000FC08F408CC08C408DC08D408600D200D64
:1002A000E00DA00D600C200CE00CA00C600F200FE6
:1002B000E00FA00F600E200EE00EA00EB00A900A14
:1002C000F00AD00A300A100A700A500AB00B900BDC
:1002D000F00BD00B300B100B700B500B15081408E3
:1002E0001708160811081008130812081D081C0822
:1002F0001F081E08190818081B081A080508040812
:100300000708060801080008030802080D080C0881
:100310000F080E08090808080B080A0856085208B2
:100320005E085A08460842084E084A0876087208CD
:100330007E087A08660862086E086A082B08290891
:100340002F082D0823082108270825083B0839080D
:100350003F083D08330831083708350854075C0763
:1003600044074C0774077C0764076C0714071C07D5
:1003700004070C0734073C0724072C07AA07AE071D
:10038000A207A607BA07BE07B207B6078A078E07F5
:10039000820786079A079E07920796075005700501
:1003A00010053005D005F0059005B0055004700427
:1003B00010043004D004F0049004B004A806B80679
:1003C00088069806E806F806C806D80628063806FD
:1003D000080618066806780648065806F507F50761
:1003E000F407F407F707F707F607F607F107F10731
:1003F000F007F007F307F307F207F207FD07FD0721
:10040000FC07FC07FF07FF07FE07FE07F907F907D0
:10041000F807F807FB07FB07FA07FA07D507D7071E
:10042000D107D307DD07DF07D907DB07C507C707F4
:10043000C107C307CD07CF07C907CB07EA07EB07FB
:10044000E807E907EE07EF07EC07ED07E207E30728
:10045000E007E107E607E707E407E507AC08A408BB
:10046000BC08B4088C0884089C089408EC08E408CC
:10047000FC08F408CC08C408DC08D4085608520864
:100480005E085A08460842084E084A08760872086C
:100490007E087A08660862086E086A08B00A900A40
:1004A000F00AD00A300A100A700A500AB00B900BFA
:1004B000F00BD00B300B100B700B500B5809480988
:1004C000780968091809080938092809D809C809E4
:1004D000F809E80998098809B809A8090A080A0862
:1004E0000B080B0808080808090809080E080E0878
:1004F0000F080F080C080C080D080D080208020868
:100500000308030800080008010801080608060897
:100510000708070804080408050805082B08290827
:100520002F082D0823082108270825083B0839082B
:100530003F083D0833083108370835081508140806
:100540001708160811081008130812081D081C08BF
:100550001F081E08190818081B081A08AA07AE0762
:10056000A207A607BA07BE07B207B6078A078E0713
:10057000820786079A079E0792079607D507D7072F
:10058000D107D307DD07DF07D907DB07C507C70793
:10059000C107C307CD07CF07C907CB07A806B80611
:1005A00088069806E806F806C806D806280638061B
:1005B00008061806680678064806580654075C07B9
:1005C00044074C0774077C0764076C0714071C0773
:1005D00004070C0734073C0724072C07FA07FA071F
:1005E000FA07FA07FB07FB07FB07FB07F807F80703
:1005F000F807F807F907F907F907F907FE07FE07F3
:10060000FE07FE07FF07FF07FF07FF07FC07FC07C2
:10061000FC07FC07FD07FD07FD07FD07EA07EB07E1
:10062000E807E907EE07EF07EC07ED07E207E30746
:10063000E007E107E607E707E407E507F507F50741
:10064000F407F407F707F707F607F607F107F107CE
:10065000F007F007F307F307F207F207560852080E
:100660005E085A08460842084E084A08760872088A
:100670007E087A08660862086E086A082B0829084E
:100680002F082D0823082108270825083B083908CA
:100690003F083D083308310837083508580948092C
:1006A000780968091809080938092809D809C80902
:1006B000F809E80998098809B809A809AC08A40844
:1006C000BC08B4088C0884089C089408EC08E4086A
:1006D000FC08F408CC08C408DC08D40805080508A0
:1006E00005080508040804080408040807080708A2
:1006F0000708070806080608060806080108010892
:1007000001080108000800080008000803080308A1
:100710000308030802080208020802081508140862
:100720001708160811081008130812081D081C08DD
:100730001F081E08190818081B081A080A080A08C2
:100740000B080B0808080808090809080E080E0815
:100750000F080F080C080C080D080D08D507D7075F
:10076000D107D307DD07DF07D907DB07C507C707B1
:10077000C107C307CD07CF07C907CB07EA07EB07B8
:10078000E807E907EE07EF07EC07ED07E207E307E5
:10079000E007E107E607E707E407E50754075C071A
:1007A00044074C0774077C0764076C0714071C0791
:1007B00004070C0734073C0724072C07AA07AE07D9
:1007C000A207A607BA07BE07B207B6078A078E07B1
:1007D000820786079A079E0792079607FD07FD077F
:1007E000FD07FD07FD07FD07FD07FD07FC07FC07EB
:1007F000FC07FC07FC07FC07FC07FC07FF07FF07DB
:10080000FF07FF07FF07FF07FF07FF07FE07FE07BA
:10081000FE07FE07FE07FE07FE07FE07F507F507C2
:10082000F407F407F707F707F607F607F107F107EC
:10083000F007F007F307F307F207F207FA07FA07E2
:10084000FA07FA07FB07FB07FB07FB07F807F807A0
:10085000F807F807F907F907F907F9072B08290836
:100860002F082D0823082108270825083B083908E8
:100870003F083D08330831083708350815081408C3
:100880001708160811081008130812081D081C087C
:100890001F081E08190818081B081A08AC08A40825
:1008A000BC08B4088C0884089C089408EC08E40888
:1008B000FC08F408CC08C408DC08D4085608520820
:1008C0005E085A08460842084E084A087608720828
:1008D0007E087A08660862086E086A08020802083C
:1008E00002080208020802080208020803080308B6
:1008F00003080308030803080308030800080008A6
:1009000000080008000800080008000801080108A5
:100910000108010801080108010801080A080A087D
:100920000B080B0808080808090809080E080E0833
:100930000F080F080C080C080D080D08050805081D
:10094000050805080408040804080408070807083F
:100950000708070806080608060806080000000041
:10096000963007772C610EEEBA51099919C46D07BC
:100970008FF46A7035A563E9A395649E3288DB0E17
:10098000A4B8DC791EE9D5E088D9D2972B4CB609FA
:10099000BD7CB17E072DB8E7911DBF906410B71DD7
:1009A000F220B06A4871B9F3DE41BE847DD4DA1A10
:1009B000EBE4DD6D51B5D4F4C785D38356986C1341
:1009C000C0A86B647AF962FDECC9658A4F5C0114BA
:1009D000D96C0663633D0FFAF50D088DC8206E3B98
:1009E0005E10694CE44160D5727167A2D1E4033CAA
:1009F00047D4044BFD850DD26BB50AA5FAA8B535D1
:100A00006C98B242D6C9BBDB40F9BCACE36CD832BF
:100A1000755CDF45CF0DD6DC593DD1ABAC30D92666
:100A20003A00DE518051D7C81661D0BFB5F4B42169
:100A300023C4B3569995BACF0FA5BDB89EB8022866
:100A40000888055FB2D90CC624E90BB1877C6F2FEB
:100A5000114C6858AB1D61C13D2D66B69041DC76E6
:100A60000671DB01BC20D2982A10D5EF8985B171BF
:100A70001FB5B606A5E4BF9F33D4B8E8A2C907786E
:100A800034F9000F8EA8099618980EE1BB0D6A7F05
:100A90002D3D6D08976C6491015C63E6F4516B6BBE
:100AA00062616C1CD83065854E0062F2ED95066C73
:100AB0007BA5011BC1F4088257C40FF5C6D9B065E8
:100AC00050E9B712EAB8BE8B7C88B9FCDF1DDD6245
:100AD000492DDA15F37CD38C654CD4FB5861B24DAB
:100AE000CE51B53A7400BCA3E230BBD441A5DF4A75
:100AF000D795D83D6DC4D1A4FBF4D6D36AE9694338
:100B0000FCD96E34468867ADD0B860DA732D0444E2
:100B1000E51D03335F4C0AAAC97C0DDD3C7105500D
:100B2000AA41022710100BBE86200CC925B56857B4
:100B3000B3856F2009D466B99FE461CE0EF9DE5EFD
:100B400098C9D9292298D0B0B4A8D7C7173DB359AE
:100B5000810DB42E3B5CBDB7AD6CBAC02083B8ED3F
:100B6000B6B3BF9A0CE2B6039AD2B1743947D5EA4C
:100B7000AF77D29D1526DB048316DC73120B63E37B
:100B8000843B64943E6A6D0DA85A6A7A0BCF0EE4DA
:100B90009DFF099327AE000AB19E077D44930FF095
:100BA000D2A3088768F2011EFEC206695D5762F78C
:100BB000CB67658071366C19E7066B6E761BD4FEC9
:100BC000E02BD3895A7ADA10CC4ADD676FDFB9F9A6
:100BD000F9EFBE8E43BEB717D58EB060E8A3D6D668
:100BE0007E93D1A1C4C2D83852F2DF4FF167BBD196
:100BF0006757BCA6DD06B53F4B36B248DA2B0DD899
:100C00004C1B0AAFF64A0336607A0441C3EF60DF3B
:100C100055DF67A8EF8E6E3179BE69468CB361CB24
:100C20001A8366BCA0D26F2536E2685295770CCC49
:100C300003470BBBB91602222F260555BE3BBAC58A
:100C4000280BBDB2925AB42B046AB35CA7FFD7C27B
:100C500031CFD0B58B9ED92C1DAEDE5BB0C2649B6C
:100C600026F263EC9CA36A750A936D02A906099C9F
:100C70003F360EEB8567077213570005824ABF9512
:100C8000147AB8E2AE2BB17B381BB60C9B8ED29295
:100C90000DBED5E5B7EFDC7C21DFDB0BD4D2D386EC
:100CA00042E2D4F1F8B3DD686E83DA1FCD16BE815F
:100CB0005B26B9F6E177B06F7747B718E65A088830
:100CC000706A0FFFCA3B06665C0B0111FF9E658FC1
:100CD00069AE62F8D3FF6B6145CF6C1678E20AA06B
:100CE000EED20DD75483044EC2B30339612667A7F1
:100CF000F71660D04D476949DB776E3E4A6AD1AE40
:100D0000DC5AD6D9660BDF40F03BD83753AEBCA9CE
:100D1000C59EBBDE7FCFB247E9FFB5301CF2BDBD3B
:100D20008AC2BACA3093B353A6A3B4240536D0BA44
:100D30009306D7CD2957DE54BF67D9232E7A66B3E1
:100D4000B84A61C4021B685D942B6F2A37BE0BB48E
:100D5000A18E0CC31BDF055A8DEF022D11241FBE7F
:100D6000CFEFD1E2DEBFCDBF00E00CBF15E0A0E0C9
:100D7000B2E0EEE6FBEB00E00BBF02C007900D9285
:100D8000A232B107D9F728E0A2E2B5E001C01D9276
:100D9000A03EB207E1F70E94A52C0C94B55D30C9C6
:100DA000FC01118210821382128275836483168281
:100DB0000895FC0122813381318320830895FC0151
:100DC00082819381208131812817390789F001962A
:100DD00093838283248135818217930720F01382C5
:100DE000128280E090E0E80FF91F878190E008957B
:100DF0008FEF9FEF0895FC018281938120813181E3
:100E00002817390769F001962481358182179307E5
:100E100010F080E090E0E80FF91F878190E00895DE
:100E20008FEF9FEF0895FC01208131812F5F3F4FAD
:100E3000848195812817390710F020E030E0828105
:100E400093818217930751F0DF01A20FB31F17960A
:100E50006C933183208380E090E0089581E0868365
:100E60008FEF9FEF0895FC0181E090E04081518178
:100E7000228133814217530711F080E090E00895FA
:100E8000FC0186810895FC011682089524EA2093CE
:100E9000BC0020E830E006C02150310921153105A1
:100EA00009F452C04091BC0047FFF6CF2091B90031
:100EB000287F283009F058C028E92093BB0024E897
:100EC0002093BC0020E830E006C0215031092115F4
:100ED000310509F441C04091BC0047FFF6CF209195
:100EE000B900287F283109F04FC06623D9F0482F78
:100EF000FC0134E881918093BB003093BC0080E812
:100F000090E003C001970097B9F02091BC0027FF43
:100F1000F9CF8091B900887F883271F58E2F841BBC
:100F2000861740F384E98093BC0088E18A95F1F745
:100F300000C080E090E0089581E080932C0510923D
:100F4000BC008AEF9FEF089581E080932C051092FA
:100F5000BC008CEF9FEF089581E080932C051092E8
:100F6000BC008BEF9FEF089581E080932C051092D9
:100F7000BC008FEF9FEF089581E080932C051092C5
:100F8000BC008DEF9FEF089581E080932C051092B7
:100F9000BC008EEF9FEF0895FB0194EA9093BC0094
:100FA00020E830E006C0215031092115310509F44F
:100FB00046C09091BC0097FFF6CF9091B900987F02
:100FC000983009F04CC08093BB0084E88093BC004B
:100FD00080E890E003C001970097C9F12091BC0020
:100FE00027FFF9CF8091B900887F883109F047C089
:100FF00080818093BB0084E88093BC0080E890E00F
:1010000003C00197009799F02091BC0027FFF9CF0A
:101010008091B900887F883251F584E98093BC00C3
:1010200088E18A95F1F700C080E090E0089581E0C2
:1010300080932C051092BC008AEF9FEF089581E009
:1010400080932C051092BC008CEF9FEF089581E0F7
:1010500080932C051092BC008BEF9FEF089581E0E8
:1010600080932C051092BC008FEF9FEF089581E0D4
:1010700080932C051092BC008DEF9FEF089581E0C6
:1010800080932C051092BC008EEF9FEF089594EA98
:101090009093BC0020E830E006C0215031092115B2
:1010A000310509F44EC09091BC0097FFF6CF9091A6
:1010B000B900987F983009F054C081608093BB00DC
:1010C00084E88093BC0080E890E004C0019700971A
:1010D00009F43FC02091BC0027FFF8CF8091B900F0
:1010E000887F803409F045C084E88093BC0080E8A4
:1010F00090E003C001970097E1F02091BC0027FF2A
:10110000F9CF8091BB00FB0180838091B900887F7B
:10111000883529F08091B900887F803591F584E980
:101120008093BC00F8E1FA95F1F700C080E090E010
:10113000089581E080932C051092BC008AEF9FEF08
:10114000089581E080932C051092BC008CEF9FEFF6
:10115000089581E080932C051092BC008BEF9FEFE7
:10116000089581E080932C051092BC008FEF9FEFD3
:10117000089581E080932C051092BC008EEF9FEFC4
:10118000089581E080932C051092BC008DEF9FEFB5
:10119000089524EA2093BC0020E830E006C02150E6
:1011A00031092115310509F45AC04091BC0047FFAF
:1011B000F6CF2091B900287F283009F060C021E8DF
:1011C0002093BB0024E82093BC0020E830E006C058
:1011D000215031092115310509F449C04091BC0065
:1011E00047FFF6CF2091B900287F203409F04FC087
:1011F000FC0130E044EC54E8313031F14093BC0064
:1012000080E890E003C00197009709F12091BC00AD
:1012100027FFF9CF8091BB0081938091B900887F2F
:10122000883541F08091B900887F8035C1F53F5FF6
:10123000323011F784E98093BC0088E18A95F1F798
:1012400000C080E090E008955093BC00D9CF81E0C9
:1012500080932C051092BC008AEF9FEF089581E0E7
:1012600080932C051092BC008CEF9FEF089581E0D5
:1012700080932C051092BC008BEF9FEF089581E0C6
:1012800080932C051092BC008FEF9FEF089581E0B2
:1012900080932C051092BC008EEF9FEF089581E0A3
:1012A00080932C051092BC008DEF9FEF089524EAE7
:1012B0002093BC0020E830E006C021503109211500
:1012C000310509F45AC04091BC0047FFF6CF209188
:1012D000B900287F283009F060C029E92093BB00BD
:1012E00024E82093BC0020E830E006C021503109FA
:1012F0002115310509F449C04091BC0047FFF6CFE4
:101300002091B900287F203409F04FC0FC0130E063
:1013100044EC54E8323031F14093BC0080E890E076
:1013200003C00197009709F12091BC0027FFF9CF76
:101330008091BB0081938091B900887F883541F00E
:101340008091B900887F8035C1F53F5F333011F758
:1013500084E98093BC0088E18A95F1F700C080E0C1
:1013600090E008955093BC00D9CF81E080932C0584
:101370001092BC008AEF9FEF089581E080932C05C6
:101380001092BC008CEF9FEF089581E080932C05B4
:101390001092BC008BEF9FEF089581E080932C05A5
:1013A0001092BC008FEF9FEF089581E080932C0591
:1013B0001092BC008EEF9FEF089581E080932C0582
:1013C0001092BC008DEF9FEF089524EA2093BC009B
:1013D00020E830E006C0215031092115310509F41B
:1013E00052C04091BC0047FFF6CF2091B900287F42
:1013F000283009F058C02CE12093BB0024E820934A
:10140000BC0020E830E006C021503109211531052B
:1014100009F441C04091BC0047FFF6CF2091B900CC
:10142000287F283109F04FC06623D9F0482FFC01EE
:1014300034E881918093BB003093BC0080E890E059
:1014400003C001970097B9F02091BC0027FFF9CFA6
:101450008091B900887F883271F58E2F841B8617A2
:1014600040F384E98093BC0088E18A95F1F700C0DD
:1014700080E090E0089581E080932C051092BC00FC
:101480008AEF9FEF089581E080932C051092BC00B5
:101490008CEF9FEF089581E080932C051092BC00A3
:1014A0008BEF9FEF089581E080932C051092BC0094
:1014B0008FEF9FEF089581E080932C051092BC0080
:1014C0008DEF9FEF089581E080932C051092BC0072
:1014D0008EEF9FEF08958F929F92AF92BF92CF921F
:1014E000DF92EF92FF92CF93DF93AC01EB01009775
:1014F00009F40FC1683071050CF40FC1DC019B01C8
:10150000812C912C5401EC91E825F0E0EE0FFF1FA7
:10151000EE0FFF1FE45AF64FC590D590E590F4907A
:10152000892C9A2CAB2CBB248C249D24AE24BF2464
:101530001196EC911197E825F0E0EE0FFF1FEE0FEA
:10154000FF1FE45AF64FC590D590E590F490892C92
:101550009A2CAB2CBB248C249D24AE24BF24129641
:10156000EC911297E825F0E0EE0FFF1FEE0FFF1F42
:10157000E45AF64FC590D590E590F490892C9A2CBA
:10158000AB2CBB248C249D24AE24BF241396EC9159
:101590001397E825F0E0EE0FFF1FEE0FFF1FE45A50
:1015A000F64FC590D590E590F490892C9A2CAB2CF1
:1015B000BB248C249D24AE24BF241496EC91149754
:1015C000E825F0E0EE0FFF1FEE0FFF1FE45AF64F85
:1015D000C590D590E590F490892C9A2CAB2CBB2427
:1015E0008C249D24AE24BF241596EC911597E825F4
:1015F000F0E0EE0FFF1FEE0FFF1FE45AF64FC5900D
:10160000D590E590F490892C9A2CAB2CBB248C249B
:101610009D24AE24BF241696EC911697E825F0E0A1
:10162000EE0FFF1FEE0FFF1FE45AF64FC590D59047
:10163000E590F490892C9A2CAB2CBB248C249D240F
:10164000AE24BF241796EC911797E825F0E0EE0F33
:10165000FF1FEE0FFF1FE45AF64FC590D590E5909F
:10166000F490892C9A2CAB2CBB248C249D24AE2482
:10167000BF24285031091896283031050CF043CF8B
:101680002897FE01F695E795F695E795F695E79587
:101690009F012F5F3F4F220F331F220F331F220F57
:1016A000331F420F531FEE0FFF1FEE0FFF1FEE0FF2
:1016B000FF1FCE1BDF0B2097D9F0DA01C40FD51F17
:1016C000ED91E825F0E0EE0FFF1FEE0FFF1FE45A4B
:1016D000F64FC590D590E590F490892C9A2CAB2CC0
:1016E000BB248C249D24AE24BF24AC17BD0741F736
:1016F000C501B4016095709580959095DF91CF916B
:10170000FF90EF90DF90CF90BF90AF909F908F9021
:10171000089560E070E0CB01F1CF812C912C540151
:10172000CACF80E285B991EF94B990E897B920E5E6
:101730002AB920E42EB938E03DB93FE730BB84BB7D
:1017400083BB209302018CEF8093010190930401ED
:1017500086E780930A01E8E0F1E080818069808378
:10176000E5E0F1E080818C6780838BB18C608BB980
:10177000559A83E397E00197F1F7289A83E397E07E
:101780000197F1F7E2E0F1E080818062808383E3FA
:1017900097E00197F1F70895F894A895877090E085
:1017A000FC013197E730F10528F188E18093600072
:1017B00088E08093600011B812B814B815B817B853
:1017C00018B81AB81BB81DB81EB810BA11BA13BA97
:1017D00014BA1092010110920201109204011092A9
:1017E0000501109207011092080110920A0110924F
:1017F0000B01FFCFEE58FF4F88E1809360000C94FF
:10180000685A8FE080936000D6CF8DE080936000AF
:10181000D2CF8CE080936000CECF8BE080936000CD
:10182000CACF8AE080936000C6CF89E080936000D1
:10183000C2CF8EE080936000BECFF89411B812B88A
:1018400014B815B817B818B81AB81BB81DB81EB810
:1018500010BA11BA13BA14BA10920101109202010F
:1018600010920401109205011092070110920801D4
:1018700010920A0110920B01849A8C9A83B7817F8F
:10188000846083BF83B7816083BF8895FFCF2FB704
:10189000F894F999FECF92BD81BD60BDF999FECF54
:1018A000FA9AF99A27FF089578940895AC01415067
:1018B000504F9C01EFB7F894F999FECF32BD21BD8E
:1018C00060BDF999FECFFA9AF99AE7FF01C07894C2
:1018D0002D5C3C4F2417350769F79C012F5F3F4F64
:1018E000905F4FB7F894F999FECF32BD21BD70BD1E
:1018F000F999FECFFA9AF99A47FF01C078942D5CC6
:101900003C4F2817390769F708951F93CF93DF934A
:10191000CDB7DEB72A970FB6F894DEBF0FBECDBFA6
:1019200019821A821B821C821D829C012150304F19
:10193000B1E04FB7F894F999FECF92BD81BDF89A06
:1019400060B547FD5DC08D5C9C4F4981442321F00B
:101950005E81561709F476C05A81552321F07F81A4
:10196000761709F472C07B81772321F0E885E617AA
:1019700009F459C0EC81EE2321F0F985F61709F43A
:101980006FC0FD81FF2321F0AA85A61709F461C06D
:101990004423C1F1552309F452C0772309F45DC0F3
:1019A000EE2309F461C0FF2309F461C08217930795
:1019B00009F0BFCF2981233008F05CC08A818330D1
:1019C00008F05FC08B81833008F05EC08C8183306B
:1019D00008F060C08D81833008F059C01FEF2530BA
:1019E00021F08DE592E00E94C65A812F2A960FB60B
:1019F000F894DEBF0FBECDBFDF91CF911F91089548
:101A00007894A1CF40E050E0E1E0F0E0EC0FFD1F62
:101A1000E40FF51FB083E6E0F0E0EC0FFD1FE40FEC
:101A2000F51F6083C3CF472FE2E0F0E061E070E094
:101A30006C0F7D1FE60FF71F4F5F4083B7CF41E06C
:101A400050E0E2CFE0E0F0E0F1CF452FE1E0F0E060
:101A5000EDCF4F2FE4E0F0E0E9CF42E050E0D4CF0B
:101A60004E2FE3E0F0E0E2CF43E050E0CDCF44E0A2
:101A700050E0CACF80E090E0FE01E80FF91F168128
:101A8000AECF81E090E0F8CF82E090E0F5CF84E047
:101A900090E0F2CF83E090E0EFCF0F931F93CF93CE
:101AA000DF93EC01019631DF082F10E0102F0027A3
:101AB000CE012BDF9801282BC901DF91CF911F9117
:101AC0000F910895CF92DF92EF92FF920F931F93A1
:101AD000CF93DF936A01811520E1920718F5141660
:101AE000150604F57B01C0E0D0E008C00115F0E167
:101AF0001F0771F0CC15DD0559F0C8018C010F5F8F
:101B00001F4F03DFF70181937F0121968111EECFF3
:101B1000CE01DF91CF911F910F91FF90EF90DF9059
:101B2000CF900895C0E0D0E0F3CF8BB183608BB944
:101B30008FEF97E40197F1F700C000002F9A2E9ADB
:101B40002C9A899A889AEBE0F1E080818064808306
:101B50005F9A579A808182608083E8E0F1E080811B
:101B60008061808380E880937400549A8FEF97E4BB
:101B70000197F1F700C000005F9881E08093B80002
:101B80000895EF92FF920F931F93CF93DF93CDB7FA
:101B9000DEB764970FB6F894DEBF0FBECDBFF82E48
:101BA000562F1D863DECE39E612D112466956695AA
:101BB000669570E1679FC00111247AE0679FE01885
:101BC0001124E82AEE86039F612D112466956695FF
:101BD000669570E1679FC00111247AE0679F001944
:101BE0001124082B0F87239F312D1124369536950C
:101BF000369560E1369FC00111247AE0379F2019A5
:101C00001124282B288B8CE0EAE1F2E0DE0111960A
:101C100001900D928A95E1F7AF2DB0E0A053B84F37
:101C200081E090E0533010F080E090E0A81BB90B09
:101C3000FE01E50FF11D8081FD01E80FF11DE40FAC
:101C4000F11D8D011695079516950795E00FF11F6B
:101C50009D01329522952F7023273F702327AEE3F5
:101C6000BAE00E946E5AE80FF91F9801ABE7B4E1A1
:101C70000E946E5A96958795E81BF90B9F01A3E980
:101C8000B4E20E946E5A281B390B36952795280F0F
:101C9000391F3695279536952795D901AA0FBB1F71
:101CA000AA0FBB1FAA0FBB1FA21BB30BEA1BFB0B88
:101CB000EF5FE98B2DEC429F312D1124369536953F
:101CC000369560E1369FC00111247AE0379F4019B4
:101CD0001124482B4A8B529F312D1124369536956D
:101CE000369540E1349FC00111246AE0369F5019B7
:101CF0001124582B5B8BF29E212D112426952695BD
:101D0000269570E1279FC00111243AE0239FF01827
:101D10001124F82AFC8A84EA8093BC0080E890E0D1
:101D200004C00197009709F443C02091BC0027FF2D
:101D3000F8CF8091B900887F8830D1F580ED80930D
:101D4000BB0084E88093BC0080E890E003C001976A
:101D5000009771F12091BC0027FFF9CF8091B90065
:101D6000887F883129F5FE013D969E012B5E3F4F0D
:101D700054E881918093BB005093BC0080E890E0D0
:101D800003C001970097A1F04091BC0047FFF9CF35
:101D90008091B900887F883259F4E217F30749F738
:101DA00084E98093BC0048E14A95F1F700C005C082
:101DB00081E080932C051092BC0064960FB6F894D5
:101DC000DEBF0FBECDBFDF91CF911F910F91FF906E
:101DD000EF9008954F925F926F927F928F929F92B1
:101DE000AF92BF92CF92DF92EF92FF920F931F9329
:101DF000CF93DF93CDB7DEB727970FB6F894DEBF4A
:101E00000FBECDBF5C014B012A0139011982BE0111
:101E10006F5F7F4F80EDC0D884EA8093BC0080E87C
:101E200090E004C00197009709F44BC02091BC00DA
:101E300027FFF8CF8091B900887F883009F041C032
:101E400081ED8093BB0084E88093BC0080E890E043
:101E500003C001970097A9F12091BC0027FFF9CF9B
:101E60008091B900887F803461F5FE01319630E0C1
:101E700044EC54E8363009F493C04093BC0080E849
:101E800090E003C001970097E1F02091BC0027FF8C
:101E9000F9CF8091BB0081938091B900887F88350C
:101EA00041F08091B900887F803559F43F5F373029
:101EB00009F784E98093BC0028E12A95F1F700C076
:101EC00005C081E080932C051092BC002981922FDF
:101ED0009695969596959E70892F880F880F890FF5
:101EE0002F70820FF60180832A81922F9695969506
:101EF00096959E70892F880F880F890F2F70820FFB
:101F0000F70180832B81922F9695969596959670E2
:101F1000892F880F880F890F2F70820FF801808317
:101F20008C81F30180832D81922F969596959695BD
:101F30009670892F880F880F890F2F70820FF201FA
:101F400080832E8124FB992790F9990F892F880F80
:101F5000880F890F2F70820FF40180838F81982F53
:101F600092959F708F70FAE09F9F800D1124F5016C
:101F7000808327960FB6F894DEBF0FBECDBFDF91EA
:101F8000CF911F910F91FF90EF90DF90CF90BF9076
:101F9000AF909F908F907F906F905F904F9008953B
:101FA0005093BC006CCF1F920F920FB60F9211246A
:101FB0008F9381E08093A8058F910F900FBE0F90B3
:101FC0001F9018950F931F93CF93DF931F921F922B
:101FD000CDB7DEB786E69EE00197F1F7000007E097
:101FE000098311E01A8362E0CE0101960E94460740
:101FF00088E0898383E08A8362E0CE0101960E94B3
:10200000460709831A8362E0CE0101960E944607C3
:102010008FEF9FE80197F1F700C000000F900F903D
:10202000DF91CF911F910F910895CF92DF92EF92A0
:10203000FF920F931F93CF93DF9300D000D0CDB7C3
:10204000DEB78C017B016A0180E1898361E0CE010A
:102050000196BBD984EA8093BC0020E830E006C03A
:10206000215031092115310509F44FC08091BC0080
:1020700087FFF6CF8091B900887F883009F045C08E
:102080008DE18093BB0084E88093BC0020E830E0C1
:1020900005C02150310921153105B9F18091BC00ED
:1020A00087FFF7CF8091B900887F803471F5FE01FA
:1020B000319690E044EC54E8953009F449C04093DF
:1020C000BC0020E830E005C0215031092115310560
:1020D000E1F08091BC0087FFF7CF8091BB00819336
:1020E0008091B900887F883541F08091B900887F60
:1020F000803559F49F5F9630F9F684E98093BC00EF
:1021000088E18A95F1F700C005C081E080932C0535
:102110001092BC0089819A81F801918380838B8120
:102120009C81F701918380838D819E81F60191834B
:10213000808326960FB6F894DEBF0FBECDBFDF9129
:10214000CF911F910F91FF90EF90DF90CF90089566
:102150005093BC00B6CFCF93DF931F921F92CDB7A1
:10216000DEB78CEC91E00197F1F700C000008BE145
:10217000898382E88A8362E0CE01019626D993E1C1
:102180009A95F1F700C08CE189838CE08A8362E044
:10219000CE0101961AD98CE589838EE78A8362E0A5
:1021A000CE01019612D98DE5898380EA8A8362E0A7
:1021B000CE0101960AD98FEF97E40197F1F700C09D
:1021C00000000F900F90DF91CF910895519A98E001
:1021D00013C059982CE02A95F1F70000589A2CE08A
:1021E0002A95F1F700005898913071F02CE02A956B
:1021F000F1F70000880F915087FFEBCF599A2CE040
:102200002A95F1F70000EACF8CE08A95F1F70000FB
:102210005198599A9CE09A95F1F70000589A2CE051
:102220002A95F1F7000089B158989CE09A95F1F74A
:102230000000869581700895382F98E080E0589AC4
:102240002CE02A95F1F7000029B126952170880F1E
:10225000822B58982CE02A95F1F70000915079F7DD
:10226000519A311116C059982CE02A95F1F70000C7
:10227000589A9CE09A95F1F7000058982CE02A951E
:10228000F1F700005198599A9CE09A95F1F70000F7
:102290000895599A9CE09A95F1F70000E9CFCF9202
:1022A000DF92EF92FF920F931F93CF93DF9300D0B3
:1022B0001F921F92CDB7DEB77C016B01519A599ADC
:1022C0008CE08A95F1F70000589AECE0EA95F1F776
:1022D00000005998FCE0FA95F1F7000058988CE05E
:1022E0008A95F1F70000589AECE0EA95F1F70000C2
:1022F000599AFCE0FA95F1F7000058988CE08A951D
:10230000F1F700008BE362DF81114CC086ED5EDFE8
:10231000882379F082E00F900F900F900F900F902C
:10232000DF91CF911F910F91FF90EF90DF90CF90B1
:10233000089584E606C0E3E3F7E03197F1F78150B2
:1023400099F14999F8CF589AFCE0FA95F1F7000015
:1023500058988CE08A95F1F700008E010F5F1F4FAF
:1023600090E081E0933009F080E09D8365DFF80123
:1023700081938F019D819F5F943099F7898190E0CF
:10238000982F88272A81822BF601918380838B8165
:1023900090E0982F88272C81822BF70191838083EE
:1023A00080E0B9CF81E0B7CF589AFCE0FA95F1F719
:1023B000000058988CE08A95F1F7000083E0ABCFDD
:1023C000EF92FF920F931F93CF93DF9300D01F9252
:1023D0001F92CDB7DEB77C01519A599A8CE08A954D
:1023E000F1F70000589AECE0EA95F1F700005998EF
:1023F000FCE0FA95F1F7000058988CE08A95F1F727
:102400000000589AECE0EA95F1F70000599AFCE0D8
:10241000FA95F1F7000058988CE08A95F1F70000E2
:102420008BE3D4DE81113BC082EDD0DE882369F0DE
:1024300082E00F900F900F900F900F90DF91CF914F
:102440001F910F91FF90EF90089584E606C0E3E39B
:10245000F7E03197F1F7815021F14999F8CF589A77
:10246000FCE0FA95F1F7000058988CE08A95F1F7B6
:1024700000008E010F5F1F4F90E081E0933009F064
:1024800080E09D83D9DEF80181938F019D819F5F5C
:10249000943099F78C81F701808380E0CACF81E086
:1024A000C8CF589AFCE0FA95F1F7000058988CE0F4
:1024B0008A95F1F7000083E0BCCF599A8CE08A95A9
:1024C000F1F70000589A9CE09A95F1F700001092FD
:1024D000BC00509A519A58988CE08A95F1F7000008
:1024E00059989CE09A95F1F70000519A599A8CE01E
:1024F0008A95F1F70000589A9CE09A95F1F7000050
:1025000059988CE08A95F1F7000058989CE09A95CC
:10251000F1F70000589A8CE08A95F1F70000599A7B
:102520009CE09A95F1F7000058988CE08A95F1F7B5
:1025300000008EE34BDE83E397E00197F1F76AE852
:1025400075E084EC95E0ABDE8DE995E039DF599AD2
:102550009CE09A95F1F70000589A8CE08A95F1F783
:1025600000005198509881E08093B8000895A59894
:102570009F70906B9EBD0DB407FEFDCF8EBD0DB458
:1025800007FEFDCFA59A08950F920FB68F93882767
:1025900080936F007894FF93F09199068091CD0518
:1025A0008F1B11F4FF911DC09F93EF93E09198064C
:1025B00081919191A5989EBD9DB597FFFDCF8EBD50
:1025C000F03809F4F0E6E0939806F0939906EF915D
:1025D0009F91FF918DB587FFFDCFA59A82E08093F3
:1025E0006F008F910FBE0F90189520912B05213011
:1025F00009F446C090F12230B9F4FC019C013E5F21
:10260000808191819595879595958795905892951C
:1026100082958F7089279F7089279063819391930A
:10262000E217F30769F70895FC019C013E5F808182
:1026300091819595879595958795959587959058CE
:10264000929582958F7089279F70892790638193D7
:102650009193E217F30759F70895FC019C013E5F3F
:10266000808191819058929582958F7089279F7073
:102670008927906381939193E217F30789F708956F
:10268000FC019C013E5F80819181959587959058D2
:10269000929582958F7089279F7089279063819387
:1026A0009193E217F30779F70895CF93DF93409161
:1026B0002B0550E0542F4427550F445A5E4FDC0140
:1026C000BE5FEC01DC5FEE91F0E0EE0FFF1FE40F68
:1026D000F51F2591349130633A932A93A817B907CF
:1026E00091F7DF91CF9108952F923F924F925F9291
:1026F0006F927F928F929F92AF92BF92CF92DF9212
:10270000EF92FF920F931F93CF93DF93CDB7DEB776
:1027100027970FB6F894DEBF0FBECDBF0097E9F143
:1027200020916F002D7F20936F0010922A05109248
:1027300029052091060127FF1BC083E090E0279622
:102740000FB6F894DEBF0FBECDBFDF91CF911F91C2
:102750000F91FF90EF90DF90CF90BF90AF909F9040
:102760008F907F906F905F904F903F902F90089543
:102770000E94E94C882319F081E090E0E0CF80E0EE
:1027800090E60E947D4E5C010097B1F38C3291057A
:1027900008F01CC184E090E0D2CF80912A0590918E
:1027A0009B08913009F40EC124E0A22EB12CC12C5B
:1027B000D12C95ED792E662463945DC00091CD05F2
:1027C00010E0802F2FB7F8949091990627FDD3C081
:1027D000E92EF12C8C3708F479C0943608F076C0D5
:1027E000C7014F968017910734F0C8014B97E81640
:1027F000F9060CF474C08091CC059091CD050E942F
:102800007D4E9C014091CF055091D0056091D1053E
:102810007091D205DB01CA01820F931FA11DB11D6A
:102820002090A9053090AA054090AB055090AC05CA
:1028300082159305A405B50508F49AC09101241BDF
:10284000350B420F531F611D711D4093CF055093EF
:10285000D0056093D1057093D2052115310509F09B
:1028600041C06092290580912A053FEFC31AD30A1F
:10287000CA14DB0404F58823C1F380912905882359
:1028800009F49CCF8FB7F8949091990687FD75C095
:1028900099831A828090CD05912C29813A8128153F
:1028A000390509F4CFC080912A053FEFC31AD30A36
:1028B000CA14DB0404F3882309F481C080916F00FB
:1028C000826080936F0080E090E039CF891708F034
:1028D00092CFC80104968E159F050CF48CCF809181
:1028E0002A05E9CF80919B08813009F448C0C901CD
:1028F0002115E2E03E0764F4E091CC05F091CD05AE
:10290000E80FF91F708201968115F2E09F07A1F789
:102910004091CC055091CD0520912B0530E0322F10
:102920002227330F245A3E4FDA01BE5FBA017C5F83
:102930002B01EE91F0E0EE0FFF1FE20FF31F8591E8
:1029400094919063F201929382932F01A417B5079B
:1029500081F77093CD056093CC056115704809F03F
:10296000A2CF20E030E63093CD052093CC059BCF5D
:10297000AC01BD016ACF78942BCF789489CFC9017F
:102980002115A2E03A0764F4E091CC05F091CD0561
:10299000E80FF91F108201968115B2E09B07A1F79D
:1029A0008091CC059091CD0520DE6091CC05709191
:1029B000CD057E5F7093CD056093CC05CECF80E0D2
:1029C00090E0BDCE38E0A32EB12CF1CE44E050E033
:1029D0006DE772E080E090E60E94B85A892B09F01A
:1029E000D9CE48E050E062E872E088E090E60E94CC
:1029F000B85A892B09F0CECE4090106050901160EB
:102A000060901260709013602091146020939B0876
:102A10008091186090911960A0911A60B0911B602C
:102A20008093860590938705A0938805B0938905C8
:102A300040911660509117604130510569F085E072
:102A400090E07DCE80916F008D7F80936F0010921B
:102A50002A0580E090E073CE80343FE19307A10522
:102A6000B10589F08131EBE29E07A105B10559F06E
:102A70008038FEE39F07A105B10529F08232964513
:102A8000A105B105E1F6213009F4F5C0263009F4BD
:102A9000E3C044E050E06BE872E0C2018C5E9F4905
:102AA0002F830E94B85A2F81892B09F073CE6201BF
:102AB0008CE1C80ED11C1092CF051092D005109257
:102AC000D1051092D205C601AA2797FDA095BA2F6D
:102AD000E8EE4E1AEFE95E0AF2014081518162810F
:102AE0007381840F951FA61FB71F8093A90590932C
:102AF000AA05A093AB05B093AC05A50160E070E01A
:102B0000481759076A077B0718F05C01AC01BD0143
:102B10004093CF055093D0056093D1057093D205B3
:102B2000213009F450C01C141D043CF4A60165EDCD
:102B300070E080E090E60E94AA5AA114F2E0BF067D
:102B400054F440E052E04A195B0965ED70E0C501BC
:102B5000905A0E94AA5A80E090E6A7DDC601880F2D
:102B6000991F905A909399068093980680E094E676
:102B70009093CD058093CC0581E080932A058091C8
:102B8000860590918705A0918805B09189058131CE
:102B90003BE29307A105B10509F456C008F447C00C
:102BA00080382EE39207A105B105C9F1823296451E
:102BB000A105B105A1F58DE491E090938700809384
:102BC000860081E0ECCD1C141D043CF4A60160E0FD
:102BD00070E080E090E60E94AA5AA11422E0B206BA
:102BE00054F440E052E04A195B0960E070E0C5012E
:102BF000905A0E94AA5A80E090E6F7DCC601880F3E
:102C0000991F880F991F905A909399068093980660
:102C100080E092E69093CD058093CC05ADCF8CEC0F
:102C200091E0909387008093860081E0B8CD803456
:102C30009F41A105B10599F789E993E09093870039
:102C40008093860081E0ABCD8CE992E09093870081
:102C50008093860081E0A3CD8091206090912160D7
:102C6000019709F0ECCE8091226090912360089743
:102C700009F0E5CE0ECF80912060909121600297FF
:102C800009F0DDCE8091226090912360409709F099
:102C9000D6CEFFCE80912A05882319F021E0822F1D
:102CA000089580910402909105020E94330721E06B
:102CB000892BA9F320E0822F08950F931F93CF93C0
:102CC000DF93EC018091040290910502FC010081E8
:102CD00011810E944307CE0101966881662351F05D
:102CE000EC0180910402909105020E941307699102
:102CF0006111F7CF60E080910402909105020E947B
:102D0000130780910402909105020E9440078823D6
:102D100069F0E0910402F09105021183008385E0DF
:102D200090E0DF91CF911F910F91089580E090E0A6
:102D3000DF91CF911F910F910895CF92DF92EF9283
:102D4000FF920F931F93CF93DF93CDB7DEB76497B6
:102D50000FB6F894DEBF0FBECDBF80912A0581115A
:102D60003EC080910402909105020E943307892B96
:102D700089F080E090E064960FB6F894DEBF0FBE55
:102D8000CDBFDF91CF911F910F91FF90EF90DF901A
:102D9000CF90089580910402909105020E94DF0671
:102DA00097FD1AC09E012F5F3F4F69010097E9F020
:102DB000F90103C00097D1F0F8018F010F5F1F4F99
:102DC0007801808380910402909105020E94DF06C1
:102DD00097FFF0CFC60188DC81E090E0CCCF80E0A7
:102DE00090E082DC80E090E0C6CF7601F7011082AF
:102DF000F1CFCF92DF92EF92FF92CF93DF9380914A
:102E00000402909105020E94D90680912A05882328
:102E100009F45FC02FB7F8948091980690919906B5
:102E200027FD60C0EC01D395C11520E8D20708F05A
:102E30004EC0C12CD12C7601CA940EC09E2F8F2F6C
:102E4000C92FD82F21E0C21AD108E108F108C11416
:102E5000D104E104F104D1F0FE01A191B191BF7060
:102E6000B850A70196010E94875ABB2797FDBA95D3
:102E7000A92F982F872F985F906399838883E115F6
:102E800080E8F807D9F690E080E6DACFE92FF82F4E
:102E900040E058E301C0FC01CF0102969C01518340
:102EA00040838111F8CF211580E8380721F1309354
:102EB000CD052093CC0581E08093290580E090E04A
:102EC000DF91CF91FF90EF90DF90CF900895D05297
:102ED000B0CF81E090E0DF91CF91FF90EF90DF9055
:102EE000CF9008957894EC01D395C11520E8D207CE
:102EF00008F49FCFECCF20E030E6D9CF809A889AB3
:102F0000259A2D9A9D9AA59A2E9A80910201846005
:102F10008093020186E69EE00197F1F7000084B1FC
:102F2000866084B98CB580658CBD8DB581608DBDA2
:102F3000A59888E38EBD0DB407FEFDCF1EBC0DB471
:102F400007FEFDCFA59A2D982D9A83E397E0019770
:102F5000F1F70895982F6623A1F1906E90937C006D
:102F600090917B0085FF29C0986090937B0096EC40
:102F700090937A0090917A0096FDFCCF2091780092
:102F80003091790010927A008F7D8850863158F008
:102F9000C9010024880F991F001C880F991F001C6D
:102FA000892F902D0895C901082E892F000C881FA4
:102FB000990B000C881F991F0895977F90937B00B1
:102FC000D6CF9F71906690937C00CACF3DB3ED98A9
:102FD000909102019F7B90930201806C9091C800B8
:102FE00095FFFCCF8093CE0081E090E103C0019774
:102FF000009721F02091C80027FFF9CF8091CE00E3
:103000008091C80085FFFCCF6093CE0081E090E105
:1030100003C00197009721F02091C80027FFF9CF46
:103020008091CE00809102018064809302013DBBBB
:103030000895DC019DB3ED98809102018F7B809310
:1030400002018091C80085FFFCCF80E28093CE0012
:1030500021E030E105C0215031092115310521F071
:103060008091C80087FFF7CF8091CE008C9380912C
:10307000C80085FFFCCF1092CE0021E030E105C0F2
:10308000215031092115310521F08091C80087FFB9
:10309000F7CF2091CE0011962C93119727FDA5C054
:1030A000FD013596222379F08091C80085FFFCCF81
:1030B0001092CE008091C80087FFFCCF8091CE0097
:1030C0008193215089F78091C80085FFFCCF109231
:1030D000CE0021E030E105C0215031092115310534
:1030E00021F08091C80087FFF7CF8091CE00129623
:1030F0008C931297809102018064809302014DB3FA
:10310000ED98809102018F7B809302018091C8002D
:1031100085FFFCCF87E88093CE0021E030E105C039
:10312000215031092115310521F08091C80087FF18
:10313000F7CF8091CE008091C80085FFFCCF109220
:10314000CE0021E030E105C02150310921153105C3
:1031500021F08091C80087FFF7CF2091CE008091A9
:1031600002018064809302014DBB13962C93139748
:103170004DB3ED98809102018F7B80930201809185
:10318000C80085FFFCCF86E88093CE0021E030E1C7
:1031900005C0215031092115310521F08091C80069
:1031A00087FFF7CF8091CE008091C80085FFFCCFCC
:1031B0001092CE0021E030E105C0215031092115E7
:1031C000310521F08091C80087FFF7CF8091CE00B4
:1031D000209102012064209302014DBB881F8827A3
:1031E000881F14968C939DBB089511961C9211977D
:1031F00081CFFC01809102018F7B8093020180913D
:10320000C80085FFFCCF80E68093CE0021E030E14E
:1032100005C0215031092115310521F08091C800E8
:1032200087FFF7CF8091CE0091818091C80085FF04
:10323000FCCF9093CE0021E030E105C02150310950
:103240002115310521F08091C80087FFF7CF8091CB
:10325000CE0081818823F1F090E0DF01A90FB11D3C
:1032600015962C918091C80085FFFCCF2093CE004D
:1032700021E030E105C0215031092115310521F04F
:103280008091C80087FFF7CF8091CE009F5F81813A
:10329000981718F3809102018064809302010895C9
:1032A0000F931F93CF93DF93EC012091A4003091F3
:1032B000A50080912605811104C0809127058823EF
:1032C000B9F08091A4009091A500821B930B803BE4
:1032D000944010F0809126058091A4009091A50063
:1032E000821B930B8036994020F380912705E1CF14
:1032F0001DB3ED9841E83DB3ED98809102018F7BBD
:10330000809302018091C80085FFFCCF4093CE00DE
:1033100081E090E103C00197009721F02091C8005F
:1033200027FFF9CF8091CE008091C80085FFFCCFA8
:103330001092CE0081E090E103C00197009721F048
:103340002091C80027FFF9CF8091CE009091020113
:103350009064909302013DBB8F718F3161F201E85F
:103360004DB3ED98809102018F7B80930201809193
:10337000C80085FFFCCF0093CE0081E090E103C040
:103380000197009721F02091C80027FFF9CF809185
:10339000CE008091C80085FFFCCF1092CE0021E0C6
:1033A00030E105C0215031092115310521F080910E
:1033B000C80087FFF7CF8091CE0090910201906402
:1033C000909302014DBB8F71893009F487C0882327
:1033D00009F444C0863011F0883011F669E082E0CB
:1033E000F5DD8091A4009091A5004DB3ED988091FA
:1033F00002018F7B809302018091C80085FFFCCF82
:103400000093CE0021E030E105C0215031092115A3
:10341000310521F08091C80087FFF7CF8091CE0061
:103420008091C80085FFFCCF1092CE0021E030E1F2
:1034300005C0215031092115310521F08091C800C6
:1034400087FFF7CF8091CE00909102019064909316
:1034500002014DBB8F718F3141F282CF68E082E073
:10346000B5DD8091A4009091A5004DB3ED988091B9
:1034700002018F7B809302018091C80085FFFCCF01
:103480000093CE0021E030E105C021503109211523
:10349000310521F08091C80087FFF7CF8091CE00E1
:1034A0008091C80085FFFCCF1092CE0021E030E172
:1034B00005C0215031092115310521F08091C80046
:1034C00087FFF7CF8091CE00909102019064909396
:1034D00002014DBB8F718F3141F242CFCE0189DEA7
:1034E00062E082E073DD81E0809326058091A40094
:1034F0009091A5009093A3058093A2051DBBDF9139
:10350000CF911F910F9108951F920F920FB60F92B6
:1035100011240BB60F922F933F934F935F936F93AA
:103520007F938F939F93AF93BF93EF93FF93ED9808
:1035300078943DB3ED98809102018F7B80930201D6
:103540008091C80085FFFCCF8FE88093CE0081E09A
:1035500090E103C00197009721F02091C80027FF58
:10356000F9CF8091CE008091C80085FFFCCF1092EA
:10357000CE0081E090E103C00197009721F02091F7
:10358000C80027FFF9CF9091CE008091020180649E
:10359000809302013DBB92FF03C081E08093270529
:1035A00093FD14C0ED9AFF91EF91BF91AF919F9160
:1035B0008F917F916F915F914F913F912F910F90DC
:1035C0000BBE0F900FBE0F901F9018953DB3ED9856
:1035D000809102018F7B809302018091C80085FF5A
:1035E000FCCF81E88093CE0081E090E103C0019799
:1035F000009721F02091C80027FFF9CF8091CE00DD
:103600008091C80085FFFCCF1092CE0081E090E150
:1036100003C00197009721F02091C80027FFF9CF40
:103620008091CE00909102019064909302013DBB85
:103630008F71813041F0863031F01092260566E0BE
:1036400082E0C4DCAFCF1092270580912805882343
:10365000C9F180912805882309F4A4CF3DB3ED98E2
:10366000809102018F7B809302018091C80085FFC9
:10367000FCCF86E88093CE0081E090E103C0019703
:10368000009721F02091C80027FFF9CF8091CE004C
:103690008091C80085FFFCCF1092CE0081E090E1C0
:1036A00003C00197009721F02091C80027FFF9CFB0
:1036B0009091CE00809102018064809302013DBB15
:1036C00097FF70CF20912505809100029091010213
:1036D00034E8239F800D911D1124ABDC8091020200
:1036E00090910302019611F18091000290910102E4
:1036F000409125052091020230910302FC0154E81B
:10370000459FE00DF11D1124408551854217530757
:1037100069F020912505FC0134E8239FE00DF11D9F
:10372000112480859185019609F03CCF8091250573
:103730008F5F809325058F3189F0909125058091C9
:10374000240598132FCF809124058F5F8093240543
:103750008F3109F027CF1092240524CF1092250530
:10376000ECCF1F920F920FB60F9211240F900FBE45
:103770000F901F901895AF92BF92CF92DF92EF9269
:10378000FF920F931F93CF93DF93CDB7DEB72D97A3
:103790000FB6F894DEBF0FBECDBF8C0189519C4F90
:1037A0008F3C974008F03FC017FD8FC001151105F1
:1037B00009F492C0043611050CF0A6C0CE010196A2
:1037C0006C01053111050CF43FC0C8016AE070E0DE
:1037D0000E94175A7C010097B9F1CB01880F991FFD
:1037E000660F771F660F771F660F771F860F971F6D
:1037F0009F938F9304EA12E01F930F93DF92CF926F
:103800000E94F35AC60159DAFF92EF921F930F9369
:10381000DF92CF920E94F35AC6014FDA0FB6F894A6
:10382000DEBF0FBECDBF2D960FB6F894DEBF0FBE24
:10383000CDBFDF91CF911F910F91FF90EF90DF905F
:10384000CF90BF90AF9008951F930F9384EA92E0BA
:103850009F938F93DF92CF920E94F35A809104023C
:1038600090910502FC01E080F1800E94430769818C
:103870000F900F900F900F900F900F90662371F0A4
:103880008E010E5F1F4F80910402909105020E94ED
:103890001307F80161918F016111F5CF60E080910C
:1038A0000402909105020E941307809104029091F6
:1038B00005020E944007882309F4B5CFE091040275
:1038C000F0910502F182E082AECF8AE992E0F5D96B
:1038D0001195019511096ECF809104029091050216
:1038E000FC01E080F1800E94430707EC12E060E3F6
:1038F00080910402909105020E941307F8016191E2
:103900008F016111F5CFCBCFC80164E670E00E9452
:10391000175A7F936F9384EA92E09F938F93FE01EF
:1039200031966F01DF92EF930E94F35A8091040267
:1039300090910502FC01A080B1800E94430769813B
:103940000F900F900F900F900F900F90662379F0CB
:103950007E01F2E0EF0EF11C8091040290910502CD
:103960000E941307F70161917F016111F5CF60E0BB
:1039700080910402909105020E9413078091040235
:10398000909105020E9440078823B9F1E09104025A
:10399000F0910502A082B182CF010E944307E8EDB9
:1039A000EE2EE3E0FE2E61E3809104029091050289
:1039B0000E941307F70161917F016111F5CF80919A
:1039C0000402909105020E941307809104029091D5
:1039D00005020E944007882331F0E0910402F09133
:1039E0000502A082B182C80164E670E00E94175A05
:1039F0008C01009709F417CFE4CE809104029091D6
:103A00000502FC01A080B180C8CFAF92BF92CF92D7
:103A1000DF92EF92FF920F931F93CF93DF931F924A
:103A20001F92CDB7DEB76B017C01C114D104E10454
:103A300080E8F80609F416C1F7FC08C1C114D104E6
:103A4000E104F10409F4D3C0C114FAECDF06FAE989
:103A5000EF06FBE3FF060CF0B4C080E4C81682E476
:103A6000D8068FE0E806F1040CF069C0F8EECF1636
:103A7000F3E0DF06E104F10404F5C114D104E1042C
:103A8000F10469F40F900F90DF91CF911F910F9186
:103A9000FF90EF90DF90CF90BF90AF900895C60158
:103AA0000F900F90DF91CF911F910F91FF90EF90AA
:103AB000DF90CF90BF90AF905ECEC701B60128EEE9
:103AC00033E040E050E00E944C5AC90154DE80913E
:103AD000040290910502FC01008111810E944307BC
:103AE000B4ECAB2EB2E0BB2E61E380910402909166
:103AF00005020E941307F50161915F016111F5CF85
:103B000080910402909105020E94130780910402A3
:103B1000909105020E944007882331F0E091040251
:103B2000F091050211830083C701B60128EE33E04E
:103B300040E050E00E944C5A6B017C019ECFC701CF
:103B4000B60120E432E44FE050E00E944C5AC90133
:103B500012DE8091040290910502FC010081118126
:103B60000E94430788EBA82E82E0B82E6DE6809174
:103B70000402909105020E941307F50161915F0113
:103B80006111F5CF80910402909105020E94130704
:103B900080910402909105020E944007882331F031
:103BA000E0910402F091050211830083C701B60180
:103BB00020E432E44FE050E00E944C5A6B017C015B
:103BC00055CFC701B60120E03AEC4AE95BE30E9419
:103BD0004C5A8C01C90169837A83CDDD8BEA92E06E
:103BE0006CD86981C62E7A81D72E780136CF809124
:103BF000040290910502FC01008111810E9443079B
:103C00009FE8E92E94E0F92E60E380910402909100
:103C100005020E941307F70161917F016111F5CF41
:103C200080910402909105020E9413078091040282
:103C3000909105020E944007882309F423CFE09168
:103C40000402F0910502118300831CCF8AE992E0FF
:103C500034D8F094E094D094C094C11CD11CE11CE1
:103C6000F11CF2CE68E872E080E090E8CEDE88E8F1
:103C700092E016CF0F931F93CF93DF9390E0FC0158
:103C80003197EB30F10538F08EEC93E0DF91CF9176
:103C90001F910F9112C8E758FF4F0C94685A8EEB92
:103CA00093E0F4CF8091040290910502FC01008121
:103CB00011810E944307C7ECD3E06EE680910402B5
:103CC000909105020E94130769916111F7CF8091CD
:103CD0000402909105020E941307809104029091C2
:103CE00005020E944007882331F0E0910402F09120
:103CF000050211830083DF91CF911F910F910895E9
:103D00008091040290910502FC01008111810E94C2
:103D10004307C7E7D3E06AE6809104029091050269
:103D20000E94130769916111F7CFD1CF80910402EE
:103D300090910502FC01008111810E944307CFE7A9
:103D4000D3E066E680910402909105020E94130779
:103D500069916111F7CFBBCF86E893E097CF8EE8EA
:103D600093E094CF86E993E091CF8EE993E08ECFF4
:103D700086EA93E08BCF8EEA93E088CF86EB93E0E0
:103D800085CF9F92AF92BF92CF92DF92EF92FF9238
:103D90000F931F93CF93DF93CDB7DEB72E970FB658
:103DA000F894DEBF0FBECDBFB82E962EA42E122FD4
:103DB0002E2D8BEA089FC12C1124C694C694C6945C
:103DC0008C2D880F8C0D880F880FC02EC81A09F40F
:103DD00059C0D12CE12CF12C222361F02B3008F0BA
:103DE00057C0622F70E080E090E00FDE87E293E042
:103DF0000E945D16C701B60108DE0C3008F055C000
:103E000087E393E00E945D16809104029091050281
:103E1000FC01C080D1800E944307A9EEEA2EA3E0F6
:103E2000FA2E60E780910402909105020E94130728
:103E3000F70161917F016111F5CF809104029091AA
:103E400005020E94130780910402909105020E94CE
:103E50004007882331F0E0910402F0910502D182FD
:103E6000C082133009F444C128F1153009F415C19A
:103E700008F439C1163009F015C186E693E00E94B6
:103E80005D1622C03CE0C32ED12CE12CF12CA4CF36
:103E9000C701B6012E87B9DD2E85622F70E080E064
:103EA00090E0B3DD0C3008F4ABCF80E393E00E94E8
:103EB0005D16AACF113009F411C1123009F0F2C019
:103EC00086E493E00E945D168091040290910502C1
:103ED000FC01E080F1800E94430707ED13E060E7FA
:103EE00080910402909105020E941307F8016191EC
:103EF0008F016111F5CF80910402909105020E941B
:103F0000130780910402909105020E9440078823C4
:103F100031F0E0910402F0910502F182E082892DF6
:103F2000A9DE8091040290910502FC01E080F180FD
:103F30000E94430707ED13E060E78091040290912F
:103F400005020E941307F80161918F016111F5CFFD
:103F500080910402909105020E941307809104024F
:103F6000909105020E944007882331F0E0910402FD
:103F7000F0910502F182E0822A2D30E025313105F1
:103F800008F495C0C9016AE070E00E94175A8C01DC
:103F9000009721F4253631050CF489C0C9014597F5
:103FA0008F34910590F5C9016AE070E00E94175ABC
:103FB000CB01880F991F660F771F660F771F660F5B
:103FC000771F860F971F9F938F9384EA92E09F93AA
:103FD0008F93CE0101967C01FF928F930E94F35A3A
:103FE000C7010E945D161F930F938CEC92E09F9384
:103FF0008F93FF92EF920E94F35AC7010E945D16C1
:104000000FB6F894DEBF0FBECDBF86ED93E00E94E1
:104010005D168091040290910502FC01E080F18020
:104020000E94430700EE13E062E380910402909146
:1040300005020E941307F80161918F016111F5CF0C
:1040400080910402909105020E941307809104025E
:10405000909105020E944007882331F0E09104020C
:10406000F0910502F182E082BB2029F06B2D70E017
:1040700080E090E0CADC2E960FB6F894DEBF0FBE4B
:10408000CDBFDF91CF911F910F91FF90EF90DF9007
:10409000CF90BF90AF909F9008958EE593E00E94DF
:1040A0005D1612CF8EE693E00E945D160DCF1F9233
:1040B000AF928CEC92E09F938F938E010F5F1F4F16
:1040C0001F930F930E94F35AC8010E945D160F9030
:1040D0000F900F900F900F900F9097CF8EE393E07B
:1040E0000E945D16F1CE86E593E00E945D16ECCE4F
:1040F0008EE493E00E945D16E7CE8091030182FD7D
:1041000003C085E090E008958091030183FF0EC015
:104110008091030184FD03C083E090E008958091C5
:10412000030185FD06C082E090E0089581E090E003
:1041300008958091030186FD03C084E090E0089516
:1041400080E090E008959FB7F8948091D1008F7E31
:104150008093D100809102018160809302018B9A4B
:1041600080910101816080930101E3E3F7E03197E1
:10417000F1F7809102018E7F809302010000000020
:104180008091020181608093020100000000000024
:104190008091020181608093020100000000809103
:1041A0000201816080930201000000008091020101
:1041B00081608093020100000000000080910201F4
:1041C0008160809302010000000080910201816003
:1041D00080930201000000000000809102018160D4
:1041E00080930201000000008091020181608093B1
:1041F00002010000000080910201816080930201B1
:1042000000000000000080910201816080930201A3
:10421000000000000000809102018E7F8093020167
:104220000000000080910201816080930201000083
:104230000000000080910201816080930201000073
:104240000000809102018160809302010000000063
:104250008091020181608093020100000000000053
:104260008091020181608093020100000000809132
:104270000201816080930201000000000000809133
:104280000201816080930201000000008091020120
:104290008160809302010000000080910201816032
:1042A0008093020100000000000080910201816003
:1042B00080930201000000000000809102018E7FC7
:1042C0008093020100000000809102018E7F8093A4
:1042D00002010000000000008091020181608093D3
:1042E00002010000000080910201816080930201C0
:1042F00000000000809102018160809302010000B3
:1043000000000000809102018160809302010000A2
:104310000000809102018160809302010000000092
:104320000000809102018160809302010000000082
:104330008091020181608093020100000000809161
:104340000201816080930201000000000000809162
:104350000201816080930201000000000000809152
:1043600002018E7F80930201000000008091020113
:104370008E7F809302010000000000008091020106
:104380008E7F809302010000000080910201816015
:104390008093020100000000809102018E7F8093D3
:1043A0000201000000000000809102018E7F8093D6
:1043B000020100000000809102018E7F80930201C3
:1043C000000000000000809102018E7F80930201B6
:1043D00000000000809102018E7F809302010000A6
:1043E00000008091020181608093020100000000C2
:1043F00000008091020181608093020100000000B2
:104400000000809102018E7F809302010000000075
:104410008091020181608093020100000000000091
:104420008091020181608093020100000000809170
:1044300002018E7F80930201000000008091020142
:104440008E7F809302010000000000008091020135
:104450008E7F8093020100000000809102018E7F18
:1044600080930201000000000000809102018E7F15
:104470008093020100000000809102018E7F8093F2
:10448000020100000000809102018160809302011E
:104490000000000000008091020181608093020111
:1044A000000000000000809102018E7F80930201D5
:1044B00000000000809102018E7F809302010000C5
:1044C00000000000809102018E7F809302010000B5
:1044D00000008091020181608093020100000000D1
:1044E000809102018E7F8093020100000000000095
:1044F000809102018E7F8093020100000000809174
:1045000002018E7F80930201000000000000809174
:1045100002018E7F80930201000000008091020161
:104520008E7F809302010000000080910201816073
:104530008093020100000000000080910201816070
:1045400080930201000000000000809102018E7F34
:104550008093020100000000809102018E7F809311
:104560000201000000000000809102018E7F809314
:10457000020100000000809102018E7F8093020101
:1045800000000000809102018E7F809302010000F4
:104590000000000080910201816080930201000010
:1045A0000000809102018E7F8093020100000000D4
:1045B0000000809102018E7F8093020100000000C4
:1045C000809102018E7F80930201000000008091A3
:1045D00002018160809302010000000000008091D0
:1045E00002018160809302010000000000008091C0
:1045F00002018E7F80930201000000008091020181
:104600008E7F809302010000000000008091020173
:1046100081608093020100000000809102018160AE
:104620008093020100000000809102018E7F809340
:104630000201000000000000809102018E7F809343
:10464000020100000000809102018160809302015C
:10465000000000000000809102018160809302014F
:10466000000000008091020181608093020100003F
:10467000000080910201816080930201000000002F
:10468000000080910201816080930201000000001F
:1046900000008091020181608093020180910101FC
:1046A0008E7F809301018B98809102018E7F809391
:1046B0000201E3E3F7E03197F1F78091D1008061E7
:1046C0008093D10097FF0895789408959F92AF92B8
:1046D000BF92CF92DF92EF92FF920F931F93CF93EF
:1046E000DF93CDB7DEB727970FB6F894DEBF0FBEC6
:1046F000CDBF5A01C22ED12C1F926F931F9293E00F
:104700009F9396012D5F3F4F3F932F931F928F935F
:104710001F928FEF8F931F928F9383EF93E09F935E
:104720008F93CE0101969F938F930E94F35A8091AD
:10473000D1008F7E8093D1008B988091D1008860CA
:104740008093D10010927F0510927E0510927D0516
:1047500010927C0580911802909119020E94D9064E
:1047600060E070E089810E9482597E0182E0E80E5B
:10477000F11C0FB6F894DEBF0FBECDBF00E010E015
:10478000912C0FC060E070E0F70180810E94825997
:104790000130110519F0F7018081980EFFEFEF1A33
:1047A000FF0A0F5F1F4F0630110561F7C114D104D6
:1047B000A1F08501E12CF12C580160E070E0F801D6
:1047C00081918F010E948259F5018081980EFFEF3F
:1047D000EF1AFF0AEC14FD047CF360E070E0892D11
:1047E00080950E94825927960FB6F894DEBF0FBEBF
:1047F000CDBFDF91CF911F910F91FF90EF90DF9090
:10480000CF90BF90AF909F9008959F92AF92BF922C
:10481000CF92DF92EF92FF920F931F93CF93DF938C
:10482000CDB7DEB728970FB6F894DEBF0FBECDBF69
:104830005B01C42ED12C1F922F931F928F931F9236
:1048400083E88F93C60104969F938F931F928EEFF8
:104850008F931F928FEF8F931F928F9381EF93E02F
:104860009F938F93CE0101969F938F930E94F35A4B
:104870008091D1008F7E8093D1008B988091D10060
:1048800088608093D10010927F0510927E0510926F
:104890007D0510927C0580911802909119020E946A
:1048A000D90660E070E089810E9482597E0182E031
:1048B000E80EF11C0FB6F894DEBF0FBECDBF00E0CE
:1048C00010E0912C0FC060E070E0F70180810E9441
:1048D00082590130110519F0F7018081980EFFEF20
:1048E000EF1AFF0A0F5F1F4F0730110561F7C11460
:1048F000D104A1F08501E12CF12C580160E070E0B9
:10490000F80181918F010E948259F5018081980EF2
:10491000FFEFEF1AFF0AEC14FD047CF360E070E097
:10492000892D80950E94825928960FB6F894DEBF93
:104930000FBECDBFDF91CF911F910F91FF90EF90F0
:10494000DF90CF90BF90AF909F900895EF92FF922D
:104950000F931F93CF93DF93CDB7DEB728970FB692
:10496000F894DEBF0FBECDBF1F924F931F926F937F
:104970001F9292E09F931F9294E09F931F928F93B8
:104980001F928FEF8F931F928F9381EF93E09F93EE
:104990008F938E010F5F1F4F1F930F930E94F35A47
:1049A0008B819C81890F9D81890F9E81890F9F81B9
:1049B000890F809588878091D1008F7E8093D10068
:1049C0008B988091D10088608093D10010927F05F0
:1049D00010927E0510927D0510927C058091180240
:1049E000909119020E94D9067E0189E0E80EF11C1F
:1049F0000FB6F894DEBF0FBECDBF60E070E0F801E7
:104A000081918F010E9482590E151F05B1F72896DA
:104A10000FB6F894DEBF0FBECDBFDF91CF911F91CF
:104A20000F91FF90EF900895EF92FF920F931F93D5
:104A3000CF93DF9300D000D0CDB7DEB71F9296E0C2
:104A40009F931F9292E09F931F928F931F928FEFDD
:104A50008F931F928F9385EF93E09F938F938E0197
:104A60000F5F1F4F1F930F930E94F35A8C819B81FE
:104A7000890F9D81890F80958E838091D1008F7ED3
:104A80008093D1008B988091D10088608093D10071
:104A900010927F0510927E0510927D0510927C0584
:104AA00080911802909119020E94D9067E0187E038
:104AB000E80EF11C0FB6F894DEBF0FBECDBF60E06C
:104AC00070E0F80181918F010E9482590E151F0537
:104AD000B1F726960FB6F894DEBF0FBECDBFDF91BB
:104AE000CF911F910F91FF90EF9008952F923F92D9
:104AF0004F925F926F927F928F929F92AF92BF92EE
:104B0000CF92DF92EF92FF920F931F93CF93DF9399
:104B1000CDB7DEB76F970FB6F894DEBF0FBECDBF2F
:104B20009F8F8E8F8091D1008F778093D1002091BD
:104B30007B05298730907A052090790500917705CB
:104B40001091780580917505909176053091BD089A
:104B50003A874091CD084B872091B5083091B6082F
:104B60004091B7085091B80829833A834B835C83FE
:104B7000C090B908D090BA08E090BB08F090BC088B
:104B80003091C7083C874091D9084D875091CE0895
:104B90005E872091D1083091D2084091D30850917E
:104BA000D4082D833E834F8358874090D50850907A
:104BB000D6086090D7087090D8083091C8083F8711
:104BC0002091BE083091BF084091C0085091C108A3
:104BD000288B398B4A8B5B8B2091C2083091C3089C
:104BE0004091C4085091C5082A8F3B8F4C8F5D8F30
:104BF0008090C9089090CA08A090CB08B090CC08CB
:104C0000309174053C8B409173054D8B409172053A
:104C100030917105109271052091D1002068209388
:104C2000D1004423D9F13323C9F18A30910509F425
:104C30007DC108F44DC08436910509F46BC1803103
:104C4000974261F49801ADECBCEC0E946E5A8C0165
:104C5000169507951695079516950795F8EECF16B4
:104C6000F3E0DF06E104F10409F49CC1B0F53AE099
:104C7000C316D104E104F10409F489C144E6C41661
:104C8000D104E104F10409F4FAC0CA94CD28CE2875
:104C9000CF28E9F51F8A1E8A19825EC080E06F96D0
:104CA0000FB6F894DEBF0FBECDBFDF91CF911F913D
:104CB0000F91FF90EF90DF90CF90BF90AF909F90BB
:104CC0008F907F906F905F904F903F902F900895BE
:104CD000019721F600E010E0C1CF80EAC81686E80F
:104CE000D80681E0E806F10409F49AC1E0E8CE169E
:104CF000E6E9DE06E8E9EE06F10409F4CBC0F0E1EE
:104D0000CF16F7E2DF06E104F10409F4BEC1ACE31B
:104D1000B0E029813A814B815C810E947D5A6B0110
:104D20007C0120E432E44FE050E00E942A5A2983BB
:104D3000A22FB0E020EC3DEB40EF5FEF0E947D5AE8
:104D40006C0D7D1D8E1D9F1D28EE33E040E050E070
:104D50000E942A5A3F8B2E8B38EE431633E05306BF
:104D60006104710409F46EC108F0A1C05AE045164F
:104D700051046104710409F45AC184E648165104CF
:104D80006104710409F4F8C04A944528462847286C
:104D900009F4EEC0ACE3B0E02D813E814F8158852F
:104DA0000E947D5A6B017C0120E432E44FE050E028
:104DB0000E942A5A2D83A22FB0E020EC3DEB40EF59
:104DC0005FEF0E947D5A6C0D7D1D8E1D9F1D28EE8C
:104DD00033E040E050E00E942A5A79014AE084160C
:104DE0009104A104B10409F48BC008F481C0E4E685
:104DF0008E169104A104B10409F4A3C0F0E18F164A
:104E0000F7E29F06A104B10409F098C06A8D7B8D7A
:104E10008C8D9D8D2AE030E040E050E00E942A5ABF
:104E2000C9012985EE8DFF8D208331822282148372
:104E300003833C8535834A8546835B855783298177
:104E400020874E895F89528741875F8553872D85EB
:104E500024873E8535874D814687F08AE7862889F5
:104E600039894A895B89218B328B438B548B968B92
:104E7000858B2C89278B3D89308F89E110CF298143
:104E80003A814B815C8160EC77E289E090E00E949E
:104E9000085A45CF69817A818B819C812AE030E074
:104EA00040E050E00E942A5AACE3B0E036CFF0EA8E
:104EB0004F16F6E85F06F1E06F06710409F4A9C029
:104EC00020E8421626E9520628E96206710409F430
:104ED00093C030E1431637E253066104710409F0D0
:104EE00059CFA0E7B7E12D813E814F81588558CF3A
:104EF0008A9489288A288B2809F580E090E091CF50
:104F0000A4E6B0E02A8D3B8D4C8D5D8D0E947D5ACC
:104F1000CB0187CFC801880F991F000F111F000F09
:104F2000111F000F111F080F191F98CE84E6F801FA
:104F30008E9F80018F9F100D112490CE8A8D9B8DA6
:104F400070CF4A8D5B8D6C8D7D8D440F551F661F14
:104F5000771FDB01CA01880F991FAA1FBB1F880F8B
:104F6000991FAA1FBB1F840F951FA61FB71F59CFDC
:104F7000E12CF12C1D8232CF2D813E814F8158854D
:104F800060EC77E289E090E00E94085A0BCF29811B
:104F90003A814B815C8160E87DE88BE590E00E947E
:104FA000085ABDCEA0E6BAEE29813A814B815C81D8
:104FB0000E947D5A6E8B7F8B888F998F20E432E41C
:104FC0004FE050E00E942A5A2983A22FB0E020EC43
:104FD0003DEB40EF5FEF0E947D5A2E893F89488D5F
:104FE000598D620F731F841F951FA70196010E94A0
:104FF0002A5A3F8B2E8BB0CE6D817E818F81988512
:105000002AE030E040E050E00E942A5AACE3B0E0F1
:10501000C7CEA8E5B2E02D813E814F815885C0CE34
:10502000A8E5B2E029813A814B815C8176CE2D8161
:105030003E814F81588560E87DE88BE590E00E94D5
:10504000085AB0CEA0E6BAEE2D813E814F81588538
:105050000E947D5A6B017C0120E432E44FE050E075
:105060000E942A5A2D83A22FB0E020EC3DEB40EFA6
:105070005FEF0E947D5A6C0D7D1D8E1D9F1DA3014B
:1050800092010E942A5A7901A9CEA0E7B7E12981AD
:105090003A814B815C8141CE0F931F93CF93DF9375
:1050A0001F92CDB7DEB7182F1092CD001092CC0012
:1050B000559A80EC8093CA0088E18093C900E3E3AD
:1050C000F7E03197F1F71092CD001092CC00E3E3B6
:1050D000F7E03197F1F7509102015F7D50930201A3
:1050E000EFEFF7E43197F1F700C00000672B09F00C
:1050F000D2C02FEF3FEF3093030220930202409380
:1051000028056CE08EE099830E94E61720916A00E2
:105110002C6020936A00ED9A612F80E20E94E617CE
:105120009981692F81E20E94E6171DB3ED9801E88D
:105130003DB3ED98809102018F7B809302018091B5
:10514000C80085FFFCCF0093CE0081E090E103C052
:105150000197009721F02091C80027FFF9CF809197
:10516000CE008091C80085FFFCCF1092CE0081E078
:1051700090E103C00197009721F02091C80027FF1C
:10518000F9CF8091CE00909102019064909302013A
:105190003DBB8F71863009F477C08823E1F18850D8
:1051A000823030F666E082E00E94E6173DB3ED986B
:1051B000809102018F7B809302018091C80085FF5E
:1051C000FCCF0093CE0081E090E103C001970097EF
:1051D00021F02091C80027FFF9CF8091CE00809167
:1051E000C80085FFFCCF1092CE0081E090E103C0A3
:1051F0000197009721F02091C80027FFF9CF8091F7
:10520000CE00909102019064909302013DBB8F719A
:105210008F3161F28DCF68E082E00E94E6173DB3E6
:10522000ED98809102018F7B809302018091C800EC
:1052300085FFFCCF0093CE0081E090E103C0019791
:10524000009721F02091C80027FFF9CF8091CE0070
:105250008091C80085FFFCCF1092CE0081E090E1E4
:1052600003C00197009721F02091C80027FFF9CFD4
:105270008091CE00909102019064909302013DBB19
:105280008F718F3161F254CF1DBB0F90DF91CF91A1
:105290001F910F910895212F392F309303022093EE
:1052A00002022DCF8B3018F08B3108F468C04BE030
:1052B0005DB3ED98809102018F7B80930201809114
:1052C000C80085FFFCCF88E88093CE0081E090E1A4
:1052D00003C00197009721F02091C80027FFF9CF64
:1052E0008091CE008091C80085FFFCCF1092CE0047
:1052F00081E090E103C00197009721F02091C80060
:1053000027FFF9CF3091CE00809102018064809315
:1053100002015DBB307E342B4DB3ED9880910201CC
:105320008F7B809302018091C80085FFFCCF88ECC1
:105330008093CE0081E090E103C00197009721F0B7
:105340002091C80027FFF9CF8091CE008091C8003E
:1053500085FFFCCF3093CE0081E090E103C0019740
:10536000009721F02091C80027FFF9CF8091CE004F
:10537000809102018064809302014DBB0895482F03
:1053800097CF4DB3ED98909102019F7B90930201CE
:105390009091C80095FFFCCF95E89093CE0021E056
:1053A00030E105C0215031092115310521F09091DE
:1053B000C80097FFF7CF9091CE009091C80095FF5D
:1053C000FCCF1092CE0021E030E105C02150310920
:1053D0002115310521F09091C80097FFF7CF9091EA
:1053E000CE00209102012064209302014DBB8F70FA
:1053F000907F892B4DB3ED98909102019F7B909304
:1054000002019091C80095FFFCCF95EC9093CE00DF
:1054100021E030E105C0215031092115310521F08D
:105420009091C80097FFF7CF9091CE009091C8005F
:1054300095FFFCCF8093CE0081E090E103C00197FF
:10544000009721F02091C80027FFF9CF8091CE006E
:10545000809102018064809302014DBB0895CF9337
:10546000DF93CDB7DEB7C458D1090FB6F894DEBFCD
:105470000FBECDBF8FE78A83FE013696DF011D92F6
:105480008A95E9F7ED9860E084E00E94E6178FEFD7
:1054900097E40197F1F700C0000063E082E00E940A
:1054A000E617AFEFB7E41197F1F700C000006FE027
:1054B00086E30E94E6178FEF97E40197F1F700C0AB
:1054C000000063E08CE00E94E617AFEFB7E41197AD
:1054D000F1F700C0000067EA8AE00E94E6178FEF4C
:1054E00097E40197F1F700C00000CE0101960E94F9
:1054F000F918AFEFB7E41197F1F700C000003DB322
:10550000ED98809102018F7B809302018091C80009
:1055100085FFFCCF8CED8093CE0081E090E103C04D
:105520000197009721F02091C80027FFF9CF8091C3
:10553000CE008091C80085FFFCCF84E58093CE002B
:1055400081E090E103C00197009721F02091C8000D
:1055500027FFF9CF8091CE00809102018064809373
:1055600002013DBB8FEF97E40197F1F700C0000007
:105570003DB3ED98809102018F7B80930201809171
:10558000C80085FFFCCF8CED8093CE0081E090E1D8
:1055900003C00197009721F02091C80027FFF9CFA1
:1055A0008091CE008091C80085FFFCCF86E4809377
:1055B000CE0081E090E103C00197009721F0209197
:1055C000C80027FFF9CF8091CE008091020180644E
:1055D000809302013DBBAFEFB7E41197F1F700C034
:1055E000000069E082E00E94E6178FEF97E40197E0
:1055F000F1F700C000003DB3ED98809102018F7B70
:10560000809302018091C80085FFFCCF82EC8093DB
:10561000CE0081E090E103C00197009721F0209136
:10562000C80027FFF9CF8091CE008091C80085FF88
:10563000FCCF82E08093CE0081E090E103C001972F
:10564000009721F02091C80027FFF9CF8091CE006C
:10565000809102018064809302013DBBCC57DF4FF3
:105660000FB6F894DEBF0FBECDBFDF91CF91089586
:105670001F93CF93DF9320E030E0E1ED71E9622FDB
:105680005DB3ED98809102018F7B80930201809140
:10569000C80085FFFCCFE093CE0081E090E103C01D
:1056A0000197009721F04091C80047FFF9CF809102
:1056B000CE008091C80085FFFCCF6093CE0081E0D2
:1056C00090E103C00197009721F04091C80047FF87
:1056D000F9CF8091CE008091020180648093020115
:1056E0005DBB5DB3ED98809102018F7B80930201D9
:1056F0008091C80085FFFCCF7093CE0081E090E1DF
:1057000003C00197009721F04091C80047FFF9CFEF
:105710008091CE008091C80085FFFCCF1092CE0012
:1057200081E090E103C00197009721F04091C8000B
:1057300047FFF9CF9091CE00809102018064809361
:1057400002015DBB95FF4BC02F5F3F4F20313105FC
:1057500009F095CFC0E0D0E011E96C2F606181E1E4
:105760000E94E6173DB3ED98809102018F7B8093F4
:1057700002018091C80085FFFCCF1093CE0081E02C
:1057800090E103C00197009721F02091C80027FF06
:10579000F9CF8091CE008091C80085FFFCCF109298
:1057A000CE0081E090E103C00197009721F02091A5
:1057B000C80027FFF9CF9091CE008091020180644C
:1057C000809302013DBB95FF16C02196C031D105E3
:1057D00021F680E89EE0DF91CF911F91089542E38A
:1057E000429FC001439F900D11248557994FDF912F
:1057F000CF911F910895209731F484EC99E0DF91C7
:10580000CF911F9108952BE42C9FC0012D9F900DE7
:1058100011248F52964FDF91CF911F9108950F92CF
:105820000FB68F93EF93FF93E091A108F091A20838
:1058300080919B05E81751F480919C05F81731F48D
:1058400081E080939A06809136010AC080913601EA
:105850008193F03609F4F0E5E093A108F093A208F3
:10586000FF91EF918F910FBE0F901895EF92FF92DD
:105870000F931F93CF93DF938C017B0183E0809381
:105880008105809122058823A9F0101611065CF489
:10589000E7010E0D1F1D60E070E089910E948259A2
:1058A000C017D107C1F7DF91CF911F910F91FF90E2
:1058B000EF9008958B988A9A62E17AE780E090E011
:1058C0000E94FC518091D1008F7E8093D10083E3B0
:1058D00097E00197F1F781E080932205D6CF93E01E
:1058E0009093810591E090938005882389F08091C1
:1058F00022058823D1F08091D10084FD05C08091DC
:10590000D10080618093D10083E0809322050895C7
:1059100080912205833009F008958091D1008F7E17
:105920008093D1009093220508958B988A9A62E122
:105930007AE780E090E00E94FC5183E397E00197D2
:10594000F1F783E0809322050895CF93DF93CDB7DD
:10595000DEB7C55CD1400FB6F894DEBF0FBECDBF39
:10596000F894A89584B7877F84BF88E1809360000E
:1059700010926000CC5BDE4F19821882C454D14073
:10598000CE5BDE4F19821882C254D140C05CDE4F1C
:1059900019821882C054D1400E94910B809103015A
:1059A0000E94950D82E08093A0008BE18093A1007E
:1059B0008FEF9FEF9093A7008093A60078948FEFCE
:1059C00097E40197F1F700C0000080E090E00E94AA
:1059D0004D0DCC58DE4F99838883C457D14083E264
:1059E00090E00E94850C882E912C982C882482E2CD
:1059F00090E00E94850C882AA12CB12C5401992496
:105A0000882481E290E00E94850C082F10E0102F7E
:105A1000002780E290E00E94850CD801A82BCD01E0
:105A2000A0E0B0E0882A992AAA2ABB2ABFEF8B16E9
:105A30009B06AB06BB0631F420E8822E25E2922EAF
:105A4000A12CB12C0E94E20F0E94AB100E945D12AB
:105A500041E061E070E0CC58DE4F8881C457D1400E
:105A6000CB58DE4F9881C557D14016DB0E947E1778
:105A700010922B0582EC8093800089E18093810055
:105A800081E090E090938900809388008CEC91E015
:105A900090938700809386001092C5001092C400F6
:105AA0006A9A80EC8093C20088E18093C100E3E3AE
:105AB000F7E03197F1F71092C5001092C40083E32C
:105AC00097E00197F1F768EC70E080E090EC0E94BD
:105AD000D00660ED77E080910402909105020E946B
